{
  "_format": "hh-sol-artifact-1",
  "contractName": "Squidoo",
  "sourceName": "contracts/Squidoo.sol",
  "abi": [
    {
      "inputs": [
        {
          "internalType": "bytes32",
          "name": "_merkleRoot",
          "type": "bytes32"
        },
        {
          "internalType": "address",
          "name": "_firstPartyWallet",
          "type": "address"
        },
        {
          "internalType": "address",
          "name": "_secondPartyWallet",
          "type": "address"
        },
        {
          "internalType": "address",
          "name": "_thirdPartyWallet",
          "type": "address"
        },
        {
          "internalType": "uint256",
          "name": "_firstPartySplit",
          "type": "uint256"
        },
        {
          "internalType": "uint256",
          "name": "_secondPartySplit",
          "type": "uint256"
        },
        {
          "internalType": "uint256",
          "name": "_thirdPartySplit",
          "type": "uint256"
        },
        {
          "internalType": "address",
          "name": "_royaltiesAddress",
          "type": "address"
        }
      ],
      "stateMutability": "nonpayable",
      "type": "constructor"
    },
    {
      "inputs": [],
      "name": "ApprovalCallerNotOwnerNorApproved",
      "type": "error"
    },
    {
      "inputs": [],
      "name": "ApprovalQueryForNonexistentToken",
      "type": "error"
    },
    {
      "inputs": [],
      "name": "ApprovalToCurrentOwner",
      "type": "error"
    },
    {
      "inputs": [],
      "name": "ApproveToCaller",
      "type": "error"
    },
    {
      "inputs": [],
      "name": "BalanceQueryForZeroAddress",
      "type": "error"
    },
    {
      "inputs": [],
      "name": "MintToZeroAddress",
      "type": "error"
    },
    {
      "inputs": [],
      "name": "MintZeroQuantity",
      "type": "error"
    },
    {
      "inputs": [],
      "name": "OwnerQueryForNonexistentToken",
      "type": "error"
    },
    {
      "inputs": [],
      "name": "TransferCallerNotOwnerNorApproved",
      "type": "error"
    },
    {
      "inputs": [],
      "name": "TransferFromIncorrectOwner",
      "type": "error"
    },
    {
      "inputs": [],
      "name": "TransferToNonERC721ReceiverImplementer",
      "type": "error"
    },
    {
      "inputs": [],
      "name": "TransferToZeroAddress",
      "type": "error"
    },
    {
      "inputs": [],
      "name": "URIQueryForNonexistentToken",
      "type": "error"
    },
    {
      "anonymous": false,
      "inputs": [
        {
          "indexed": true,
          "internalType": "address",
          "name": "owner",
          "type": "address"
        },
        {
          "indexed": true,
          "internalType": "address",
          "name": "approved",
          "type": "address"
        },
        {
          "indexed": true,
          "internalType": "uint256",
          "name": "tokenId",
          "type": "uint256"
        }
      ],
      "name": "Approval",
      "type": "event"
    },
    {
      "anonymous": false,
      "inputs": [
        {
          "indexed": true,
          "internalType": "address",
          "name": "owner",
          "type": "address"
        },
        {
          "indexed": true,
          "internalType": "address",
          "name": "operator",
          "type": "address"
        },
        {
          "indexed": false,
          "internalType": "bool",
          "name": "approved",
          "type": "bool"
        }
      ],
      "name": "ApprovalForAll",
      "type": "event"
    },
    {
      "anonymous": false,
      "inputs": [
        {
          "indexed": true,
          "internalType": "address",
          "name": "previousOwner",
          "type": "address"
        },
        {
          "indexed": true,
          "internalType": "address",
          "name": "newOwner",
          "type": "address"
        }
      ],
      "name": "OwnershipTransferred",
      "type": "event"
    },
    {
      "anonymous": false,
      "inputs": [
        {
          "indexed": true,
          "internalType": "address",
          "name": "from",
          "type": "address"
        },
        {
          "indexed": true,
          "internalType": "address",
          "name": "to",
          "type": "address"
        },
        {
          "indexed": true,
          "internalType": "uint256",
          "name": "tokenId",
          "type": "uint256"
        }
      ],
      "name": "Transfer",
      "type": "event"
    },
    {
      "inputs": [],
      "name": "ALLOW_LIST_SUPPLY",
      "outputs": [
        {
          "internalType": "uint256",
          "name": "",
          "type": "uint256"
        }
      ],
      "stateMutability": "view",
      "type": "function"
    },
    {
      "inputs": [],
      "name": "MAX_MINTS_PER_ALLOW_LIST",
      "outputs": [
        {
          "internalType": "uint256",
          "name": "",
          "type": "uint256"
        }
      ],
      "stateMutability": "view",
      "type": "function"
    },
    {
      "inputs": [],
      "name": "MAX_MINTS_PER_PUBLIC",
      "outputs": [
        {
          "internalType": "uint256",
          "name": "",
          "type": "uint256"
        }
      ],
      "stateMutability": "view",
      "type": "function"
    },
    {
      "inputs": [],
      "name": "MAX_SUPPLY",
      "outputs": [
        {
          "internalType": "uint256",
          "name": "",
          "type": "uint256"
        }
      ],
      "stateMutability": "view",
      "type": "function"
    },
    {
      "inputs": [],
      "name": "PRICE",
      "outputs": [
        {
          "internalType": "uint256",
          "name": "",
          "type": "uint256"
        }
      ],
      "stateMutability": "view",
      "type": "function"
    },
    {
      "inputs": [
        {
          "internalType": "uint256",
          "name": "_quantity",
          "type": "uint256"
        },
        {
          "internalType": "bytes32[]",
          "name": "_merkleProof",
          "type": "bytes32[]"
        }
      ],
      "name": "allowlistMint",
      "outputs": [],
      "stateMutability": "payable",
      "type": "function"
    },
    {
      "inputs": [
        {
          "internalType": "address",
          "name": "",
          "type": "address"
        }
      ],
      "name": "allowlistMintsPerAddress",
      "outputs": [
        {
          "internalType": "uint256",
          "name": "",
          "type": "uint256"
        }
      ],
      "stateMutability": "view",
      "type": "function"
    },
    {
      "inputs": [
        {
          "internalType": "address",
          "name": "to",
          "type": "address"
        },
        {
          "internalType": "uint256",
          "name": "tokenId",
          "type": "uint256"
        }
      ],
      "name": "approve",
      "outputs": [],
      "stateMutability": "nonpayable",
      "type": "function"
    },
    {
      "inputs": [
        {
          "internalType": "address",
          "name": "owner",
          "type": "address"
        }
      ],
      "name": "balanceOf",
      "outputs": [
        {
          "internalType": "uint256",
          "name": "",
          "type": "uint256"
        }
      ],
      "stateMutability": "view",
      "type": "function"
    },
    {
      "inputs": [],
      "name": "baseURI",
      "outputs": [
        {
          "internalType": "string",
          "name": "",
          "type": "string"
        }
      ],
      "stateMutability": "view",
      "type": "function"
    },
    {
      "inputs": [],
      "name": "devPayoutRemaining",
      "outputs": [
        {
          "internalType": "uint256",
          "name": "",
          "type": "uint256"
        }
      ],
      "stateMutability": "view",
      "type": "function"
    },
    {
      "inputs": [],
      "name": "firstPartySplit",
      "outputs": [
        {
          "internalType": "uint256",
          "name": "",
          "type": "uint256"
        }
      ],
      "stateMutability": "view",
      "type": "function"
    },
    {
      "inputs": [],
      "name": "firstPartyWallet",
      "outputs": [
        {
          "internalType": "address",
          "name": "",
          "type": "address"
        }
      ],
      "stateMutability": "view",
      "type": "function"
    },
    {
      "inputs": [
        {
          "internalType": "uint256",
          "name": "tokenId",
          "type": "uint256"
        }
      ],
      "name": "getApproved",
      "outputs": [
        {
          "internalType": "address",
          "name": "",
          "type": "address"
        }
      ],
      "stateMutability": "view",
      "type": "function"
    },
    {
      "inputs": [],
      "name": "isAllowlistMintActive",
      "outputs": [
        {
          "internalType": "bool",
          "name": "",
          "type": "bool"
        }
      ],
      "stateMutability": "view",
      "type": "function"
    },
    {
      "inputs": [
        {
          "internalType": "address",
          "name": "owner",
          "type": "address"
        },
        {
          "internalType": "address",
          "name": "operator",
          "type": "address"
        }
      ],
      "name": "isApprovedForAll",
      "outputs": [
        {
          "internalType": "bool",
          "name": "",
          "type": "bool"
        }
      ],
      "stateMutability": "view",
      "type": "function"
    },
    {
      "inputs": [],
      "name": "isPublicMintActive",
      "outputs": [
        {
          "internalType": "bool",
          "name": "",
          "type": "bool"
        }
      ],
      "stateMutability": "view",
      "type": "function"
    },
    {
      "inputs": [],
      "name": "maxReserveMintRemaining",
      "outputs": [
        {
          "internalType": "uint256",
          "name": "",
          "type": "uint256"
        }
      ],
      "stateMutability": "view",
      "type": "function"
    },
    {
      "inputs": [],
      "name": "merkleRoot",
      "outputs": [
        {
          "internalType": "bytes32",
          "name": "",
          "type": "bytes32"
        }
      ],
      "stateMutability": "view",
      "type": "function"
    },
    {
      "inputs": [],
      "name": "name",
      "outputs": [
        {
          "internalType": "string",
          "name": "",
          "type": "string"
        }
      ],
      "stateMutability": "view",
      "type": "function"
    },
    {
      "inputs": [],
      "name": "owner",
      "outputs": [
        {
          "internalType": "address",
          "name": "",
          "type": "address"
        }
      ],
      "stateMutability": "view",
      "type": "function"
    },
    {
      "inputs": [
        {
          "internalType": "uint256",
          "name": "tokenId",
          "type": "uint256"
        }
      ],
      "name": "ownerOf",
      "outputs": [
        {
          "internalType": "address",
          "name": "",
          "type": "address"
        }
      ],
      "stateMutability": "view",
      "type": "function"
    },
    {
      "inputs": [
        {
          "internalType": "uint256",
          "name": "_quantity",
          "type": "uint256"
        }
      ],
      "name": "publicMint",
      "outputs": [],
      "stateMutability": "payable",
      "type": "function"
    },
    {
      "inputs": [
        {
          "internalType": "address",
          "name": "",
          "type": "address"
        }
      ],
      "name": "publicMintsPerAddress",
      "outputs": [
        {
          "internalType": "uint256",
          "name": "",
          "type": "uint256"
        }
      ],
      "stateMutability": "view",
      "type": "function"
    },
    {
      "inputs": [],
      "name": "renounceOwnership",
      "outputs": [],
      "stateMutability": "nonpayable",
      "type": "function"
    },
    {
      "inputs": [
        {
          "internalType": "uint256",
          "name": "_quantity",
          "type": "uint256"
        }
      ],
      "name": "reservedMint",
      "outputs": [],
      "stateMutability": "nonpayable",
      "type": "function"
    },
    {
      "inputs": [],
      "name": "royaltiesAddress",
      "outputs": [
        {
          "internalType": "address",
          "name": "",
          "type": "address"
        }
      ],
      "stateMutability": "view",
      "type": "function"
    },
    {
      "inputs": [
        {
          "internalType": "uint256",
          "name": "_tokenId",
          "type": "uint256"
        },
        {
          "internalType": "uint256",
          "name": "_salePrice",
          "type": "uint256"
        }
      ],
      "name": "royaltyInfo",
      "outputs": [
        {
          "internalType": "address",
          "name": "",
          "type": "address"
        },
        {
          "internalType": "uint256",
          "name": "royaltyAmount",
          "type": "uint256"
        }
      ],
      "stateMutability": "view",
      "type": "function"
    },
    {
      "inputs": [
        {
          "internalType": "address",
          "name": "from",
          "type": "address"
        },
        {
          "internalType": "address",
          "name": "to",
          "type": "address"
        },
        {
          "internalType": "uint256",
          "name": "tokenId",
          "type": "uint256"
        }
      ],
      "name": "safeTransferFrom",
      "outputs": [],
      "stateMutability": "nonpayable",
      "type": "function"
    },
    {
      "inputs": [
        {
          "internalType": "address",
          "name": "from",
          "type": "address"
        },
        {
          "internalType": "address",
          "name": "to",
          "type": "address"
        },
        {
          "internalType": "uint256",
          "name": "tokenId",
          "type": "uint256"
        },
        {
          "internalType": "bytes",
          "name": "_data",
          "type": "bytes"
        }
      ],
      "name": "safeTransferFrom",
      "outputs": [],
      "stateMutability": "nonpayable",
      "type": "function"
    },
    {
      "inputs": [],
      "name": "secondPartySplit",
      "outputs": [
        {
          "internalType": "uint256",
          "name": "",
          "type": "uint256"
        }
      ],
      "stateMutability": "view",
      "type": "function"
    },
    {
      "inputs": [],
      "name": "secondPartyWallet",
      "outputs": [
        {
          "internalType": "address",
          "name": "",
          "type": "address"
        }
      ],
      "stateMutability": "view",
      "type": "function"
    },
    {
      "inputs": [
        {
          "internalType": "address",
          "name": "operator",
          "type": "address"
        },
        {
          "internalType": "bool",
          "name": "approved",
          "type": "bool"
        }
      ],
      "name": "setApprovalForAll",
      "outputs": [],
      "stateMutability": "nonpayable",
      "type": "function"
    },
    {
      "inputs": [
        {
          "internalType": "string",
          "name": "uri",
          "type": "string"
        }
      ],
      "name": "setBaseURI",
      "outputs": [],
      "stateMutability": "nonpayable",
      "type": "function"
    },
    {
      "inputs": [
        {
          "internalType": "bytes32",
          "name": "root",
          "type": "bytes32"
        }
      ],
      "name": "setMerkleRoot",
      "outputs": [],
      "stateMutability": "nonpayable",
      "type": "function"
    },
    {
      "inputs": [
        {
          "internalType": "address",
          "name": "_newAddress",
          "type": "address"
        }
      ],
      "name": "setRoyaltiesAddress",
      "outputs": [],
      "stateMutability": "nonpayable",
      "type": "function"
    },
    {
      "inputs": [
        {
          "internalType": "bytes4",
          "name": "_interfaceId",
          "type": "bytes4"
        }
      ],
      "name": "supportsInterface",
      "outputs": [
        {
          "internalType": "bool",
          "name": "",
          "type": "bool"
        }
      ],
      "stateMutability": "view",
      "type": "function"
    },
    {
      "inputs": [],
      "name": "symbol",
      "outputs": [
        {
          "internalType": "string",
          "name": "",
          "type": "string"
        }
      ],
      "stateMutability": "view",
      "type": "function"
    },
    {
      "inputs": [],
      "name": "thirdPartySplit",
      "outputs": [
        {
          "internalType": "uint256",
          "name": "",
          "type": "uint256"
        }
      ],
      "stateMutability": "view",
      "type": "function"
    },
    {
      "inputs": [],
      "name": "thirdPartyWallet",
      "outputs": [
        {
          "internalType": "address",
          "name": "",
          "type": "address"
        }
      ],
      "stateMutability": "view",
      "type": "function"
    },
    {
      "inputs": [],
      "name": "toggleAllowlistMint",
      "outputs": [],
      "stateMutability": "nonpayable",
      "type": "function"
    },
    {
      "inputs": [],
      "name": "togglePublicMint",
      "outputs": [],
      "stateMutability": "nonpayable",
      "type": "function"
    },
    {
      "inputs": [
        {
          "internalType": "uint256",
          "name": "tokenId",
          "type": "uint256"
        }
      ],
      "name": "tokenURI",
      "outputs": [
        {
          "internalType": "string",
          "name": "",
          "type": "string"
        }
      ],
      "stateMutability": "view",
      "type": "function"
    },
    {
      "inputs": [],
      "name": "totalSupply",
      "outputs": [
        {
          "internalType": "uint256",
          "name": "",
          "type": "uint256"
        }
      ],
      "stateMutability": "view",
      "type": "function"
    },
    {
      "inputs": [
        {
          "internalType": "address",
          "name": "from",
          "type": "address"
        },
        {
          "internalType": "address",
          "name": "to",
          "type": "address"
        },
        {
          "internalType": "uint256",
          "name": "tokenId",
          "type": "uint256"
        }
      ],
      "name": "transferFrom",
      "outputs": [],
      "stateMutability": "nonpayable",
      "type": "function"
    },
    {
      "inputs": [
        {
          "internalType": "address",
          "name": "newOwner",
          "type": "address"
        }
      ],
      "name": "transferOwnership",
      "outputs": [],
      "stateMutability": "nonpayable",
      "type": "function"
    },
    {
      "inputs": [],
      "name": "withdrawBalance",
      "outputs": [],
      "stateMutability": "nonpayable",
      "type": "function"
    }
  ],
  "bytecode": "0x60806040526753444835ec580000600f556101f46010556040518060400160405280601581526020017f6e66743a2f2f736f7272794465746563746976652f00000000000000000000008152506013908051906020019062000063929190620003a9565b506000601460006101000a81548160ff0219169083151502179055506000601460016101000a81548160ff0219169083151502179055506064601755348015620000ac57600080fd5b50604051620051ab380380620051ab8339818101604052810190620000d2919062000539565b6040518060400160405280600781526020017f53717569646f6f000000000000000000000000000000000000000000000000008152506040518060400160405280600581526020017f5351554944000000000000000000000000000000000000000000000000000000815250816002908051906020019062000156929190620003a9565b5080600390805190602001906200016f929190620003a9565b5062000180620002d660201b60201c565b6000819055505050620001a86200019c620002db60201b60201c565b620002e360201b60201c565b8760128190555086600960006101000a81548173ffffffffffffffffffffffffffffffffffffffff021916908373ffffffffffffffffffffffffffffffffffffffff16021790555085600a60006101000a81548173ffffffffffffffffffffffffffffffffffffffff021916908373ffffffffffffffffffffffffffffffffffffffff16021790555084600b60006101000a81548173ffffffffffffffffffffffffffffffffffffffff021916908373ffffffffffffffffffffffffffffffffffffffff16021790555083600c8190555082600d8190555081600e8190555080601160006101000a81548173ffffffffffffffffffffffffffffffffffffffff021916908373ffffffffffffffffffffffffffffffffffffffff160217905550505050505050505062000667565b600090565b600033905090565b6000600860009054906101000a900473ffffffffffffffffffffffffffffffffffffffff16905081600860006101000a81548173ffffffffffffffffffffffffffffffffffffffff021916908373ffffffffffffffffffffffffffffffffffffffff1602179055508173ffffffffffffffffffffffffffffffffffffffff168173ffffffffffffffffffffffffffffffffffffffff167f8be0079c531659141344cd1fd0a4f28419497f9722a3daafe3b4186f6b6457e060405160405180910390a35050565b828054620003b79062000631565b90600052602060002090601f016020900481019282620003db576000855562000427565b82601f10620003f657805160ff191683800117855562000427565b8280016001018555821562000427579182015b828111156200042657825182559160200191906001019062000409565b5b5090506200043691906200043a565b5090565b5b80821115620004555760008160009055506001016200043b565b5090565b600080fd5b6000819050919050565b62000473816200045e565b81146200047f57600080fd5b50565b600081519050620004938162000468565b92915050565b600073ffffffffffffffffffffffffffffffffffffffff82169050919050565b6000620004c68262000499565b9050919050565b620004d881620004b9565b8114620004e457600080fd5b50565b600081519050620004f881620004cd565b92915050565b6000819050919050565b6200051381620004fe565b81146200051f57600080fd5b50565b600081519050620005338162000508565b92915050565b600080600080600080600080610100898b0312156200055d576200055c62000459565b5b60006200056d8b828c0162000482565b9850506020620005808b828c01620004e7565b9750506040620005938b828c01620004e7565b9650506060620005a68b828c01620004e7565b9550506080620005b98b828c0162000522565b94505060a0620005cc8b828c0162000522565b93505060c0620005df8b828c0162000522565b92505060e0620005f28b828c01620004e7565b9150509295985092959890939650565b7f4e487b7100000000000000000000000000000000000000000000000000000000600052602260045260246000fd5b600060028204905060018216806200064a57607f821691505b6020821081141562000661576200066062000602565b5b50919050565b614b3480620006776000396000f3fe6080604052600436106102885760003560e01c806370a082311161015a578063a22cb465116100c1578063e49474c61161007a578063e49474c614610981578063e50f85dd146109ac578063e5a2bbd1146109d7578063e985e9c514610a02578063f2fde38b14610a3f578063ff49d66114610a6857610288565b8063a22cb46514610861578063b88d4fde1461088a578063c43ba8f4146108b3578063c87b56dd146108de578063d377f52e1461091b578063dc95c4a71461095857610288565b80638d859f3e116101135780638d859f3e146107735780638da5cb5b1461079e5780638f2cbdd1146107c957806395d89b41146107e05780639a809cfc1461080b5780639efbe4921461083657610288565b806370a0823114610686578063715018a6146106c35780637bc9200e146106da5780637cb64759146106f65780638b63d5581461071f5780638c74bf0e1461074a57610288565b80632eb4a7ab116101fe57806355f804b3116101b757806355f804b3146105885780635fd8c710146105b15780636352211e146105c85780636c0360eb146106055780636cc97909146106305780636dd9342b1461065b57610288565b80632eb4a7ab1461049c57806332882535146104c757806332cb6b0c146104f25780633e5b4cd01461051d5780634047638d1461054857806342842e0e1461055f57610288565b806319c0841f1161025057806319c0841f14610386578063229fa55d146103c357806323b872dd146103ee5780632a55205a146104175780632d6b6224146104555780632db115441461048057610288565b806301ffc9a71461028d57806306fdde03146102ca578063081812fc146102f5578063095ea7b31461033257806318160ddd1461035b575b600080fd5b34801561029957600080fd5b506102b460048036038101906102af9190613715565b610a93565b6040516102c1919061375d565b60405180910390f35b3480156102d657600080fd5b506102df610b0d565b6040516102ec9190613811565b60405180910390f35b34801561030157600080fd5b5061031c60048036038101906103179190613869565b610b9f565b60405161032991906138d7565b60405180910390f35b34801561033e57600080fd5b506103596004803603810190610354919061391e565b610c1b565b005b34801561036757600080fd5b50610370610d26565b60405161037d919061396d565b60405180910390f35b34801561039257600080fd5b506103ad60048036038101906103a89190613988565b610d3d565b6040516103ba919061396d565b60405180910390f35b3480156103cf57600080fd5b506103d8610d55565b6040516103e5919061375d565b60405180910390f35b3480156103fa57600080fd5b50610415600480360381019061041091906139b5565b610d68565b005b34801561042357600080fd5b5061043e60048036038101906104399190613a08565b610d78565b60405161044c929190613a48565b60405180910390f35b34801561046157600080fd5b5061046a610dc4565b604051610477919061375d565b60405180910390f35b61049a60048036038101906104959190613869565b610dd7565b005b3480156104a857600080fd5b506104b1610fc2565b6040516104be9190613a8a565b60405180910390f35b3480156104d357600080fd5b506104dc610fc8565b6040516104e991906138d7565b60405180910390f35b3480156104fe57600080fd5b50610507610fee565b604051610514919061396d565b60405180910390f35b34801561052957600080fd5b50610532610ff4565b60405161053f919061396d565b60405180910390f35b34801561055457600080fd5b5061055d610ff9565b005b34801561056b57600080fd5b50610586600480360381019061058191906139b5565b6110a1565b005b34801561059457600080fd5b506105af60048036038101906105aa9190613b0a565b6110c1565b005b3480156105bd57600080fd5b506105c6611153565b005b3480156105d457600080fd5b506105ef60048036038101906105ea9190613869565b611528565b6040516105fc91906138d7565b60405180910390f35b34801561061157600080fd5b5061061a61153e565b6040516106279190613811565b60405180910390f35b34801561063c57600080fd5b506106456115cc565b604051610652919061396d565b60405180910390f35b34801561066757600080fd5b506106706115d2565b60405161067d919061396d565b60405180910390f35b34801561069257600080fd5b506106ad60048036038101906106a89190613988565b6115d8565b6040516106ba919061396d565b60405180910390f35b3480156106cf57600080fd5b506106d86116a8565b005b6106f460048036038101906106ef9190613bad565b611730565b005b34801561070257600080fd5b5061071d60048036038101906107189190613c39565b611a2c565b005b34801561072b57600080fd5b50610734611ab2565b604051610741919061396d565b60405180910390f35b34801561075657600080fd5b50610771600480360381019061076c9190613869565b611ab8565b005b34801561077f57600080fd5b50610788611c17565b604051610795919061396d565b60405180910390f35b3480156107aa57600080fd5b506107b3611c23565b6040516107c091906138d7565b60405180910390f35b3480156107d557600080fd5b506107de611c4d565b005b3480156107ec57600080fd5b506107f5611cf5565b6040516108029190613811565b60405180910390f35b34801561081757600080fd5b50610820611d87565b60405161082d919061396d565b60405180910390f35b34801561084257600080fd5b5061084b611d8c565b604051610858919061396d565b60405180910390f35b34801561086d57600080fd5b5061088860048036038101906108839190613c92565b611d92565b005b34801561089657600080fd5b506108b160048036038101906108ac9190613e02565b611f0a565b005b3480156108bf57600080fd5b506108c8611f86565b6040516108d591906138d7565b60405180910390f35b3480156108ea57600080fd5b5061090560048036038101906109009190613869565b611fac565b6040516109129190613811565b60405180910390f35b34801561092757600080fd5b50610942600480360381019061093d9190613988565b61204b565b60405161094f919061396d565b60405180910390f35b34801561096457600080fd5b5061097f600480360381019061097a9190613988565b612063565b005b34801561098d57600080fd5b50610996612123565b6040516109a391906138d7565b60405180910390f35b3480156109b857600080fd5b506109c1612149565b6040516109ce919061396d565b60405180910390f35b3480156109e357600080fd5b506109ec61214f565b6040516109f9919061396d565b60405180910390f35b348015610a0e57600080fd5b50610a296004803603810190610a249190613e85565b612155565b604051610a36919061375d565b60405180910390f35b348015610a4b57600080fd5b50610a666004803603810190610a619190613988565b6121e9565b005b348015610a7457600080fd5b50610a7d6122e1565b604051610a8a91906138d7565b60405180910390f35b60007f2a55205a000000000000000000000000000000000000000000000000000000007bffffffffffffffffffffffffffffffffffffffffffffffffffffffff1916827bffffffffffffffffffffffffffffffffffffffffffffffffffffffff19161480610b065750610b0582612307565b5b9050919050565b606060028054610b1c90613ef4565b80601f0160208091040260200160405190810160405280929190818152602001828054610b4890613ef4565b8015610b955780601f10610b6a57610100808354040283529160200191610b95565b820191906000526020600020905b815481529060010190602001808311610b7857829003601f168201915b5050505050905090565b6000610baa826123e9565b610be0576040517fcf4700e400000000000000000000000000000000000000000000000000000000815260040160405180910390fd5b6006600083815260200190815260200160002060009054906101000a900473ffffffffffffffffffffffffffffffffffffffff169050919050565b6000610c2682611528565b90508073ffffffffffffffffffffffffffffffffffffffff168373ffffffffffffffffffffffffffffffffffffffff161415610c8e576040517f943f7b8c00000000000000000000000000000000000000000000000000000000815260040160405180910390fd5b8073ffffffffffffffffffffffffffffffffffffffff16610cad612437565b73ffffffffffffffffffffffffffffffffffffffff1614158015610cdf5750610cdd81610cd8612437565b612155565b155b15610d16576040517fcfb3b94200000000000000000000000000000000000000000000000000000000815260040160405180910390fd5b610d2183838361243f565b505050565b6000610d306124f1565b6001546000540303905090565b60166020528060005260406000206000915090505481565b601460009054906101000a900460ff1681565b610d738383836124f6565b505050565b60008060105461271084610d8c9190613f84565b610d969190613fb5565b9050601160009054906101000a900473ffffffffffffffffffffffffffffffffffffffff1691509250929050565b601460019054906101000a900460ff1681565b601460019054906101000a900460ff16610e26576040517f08c379a0000000000000000000000000000000000000000000000000000000008152600401610e1d9061405b565b60405180910390fd5b67011c37937e08000081610e3a9190613fb5565b3414610e7b576040517f08c379a0000000000000000000000000000000000000000000000000000000008152600401610e72906140c7565b60405180910390fd5b6122b8610e86610d26565b82610e9191906140e7565b10610ed1576040517f08c379a0000000000000000000000000000000000000000000000000000000008152600401610ec8906141af565b60405180910390fd5b600381601660003373ffffffffffffffffffffffffffffffffffffffff1673ffffffffffffffffffffffffffffffffffffffff16815260200190815260200160002054610f1e91906140e7565b1115610f5f576040517f08c379a0000000000000000000000000000000000000000000000000000000008152600401610f5690614241565b60405180910390fd5b80601660003373ffffffffffffffffffffffffffffffffffffffff1673ffffffffffffffffffffffffffffffffffffffff1681526020019081526020016000206000828254610fae91906140e7565b92505081905550610fbf33826129ac565b50565b60125481565b601160009054906101000a900473ffffffffffffffffffffffffffffffffffffffff1681565b6122b881565b600381565b611001612437565b73ffffffffffffffffffffffffffffffffffffffff1661101f611c23565b73ffffffffffffffffffffffffffffffffffffffff1614611075576040517f08c379a000000000000000000000000000000000000000000000000000000000815260040161106c906142ad565b60405180910390fd5b601460019054906101000a900460ff1615601460016101000a81548160ff021916908315150217905550565b6110bc83838360405180602001604052806000815250611f0a565b505050565b6110c9612437565b73ffffffffffffffffffffffffffffffffffffffff166110e7611c23565b73ffffffffffffffffffffffffffffffffffffffff161461113d576040517f08c379a0000000000000000000000000000000000000000000000000000000008152600401611134906142ad565b60405180910390fd5b81816013919061114e9291906135c3565b505050565b61115b612437565b73ffffffffffffffffffffffffffffffffffffffff16611179611c23565b73ffffffffffffffffffffffffffffffffffffffff16146111cf576040517f08c379a00000000000000000000000000000000000000000000000000000000081526004016111c6906142ad565b60405180910390fd5b60004711611212576040517f08c379a000000000000000000000000000000000000000000000000000000000815260040161120990614319565b60405180910390fd5b60004790506000600960009054906101000a900473ffffffffffffffffffffffffffffffffffffffff1673ffffffffffffffffffffffffffffffffffffffff166064600c54846112629190613fb5565b61126c9190613f84565b6040516112789061436a565b60006040518083038185875af1925050503d80600081146112b5576040519150601f19603f3d011682016040523d82523d6000602084013e6112ba565b606091505b50509050806112fe576040517f08c379a00000000000000000000000000000000000000000000000000000000081526004016112f5906143f1565b60405180910390fd5b6000600a60009054906101000a900473ffffffffffffffffffffffffffffffffffffffff1673ffffffffffffffffffffffffffffffffffffffff166064600d54856113499190613fb5565b6113539190613f84565b60405161135f9061436a565b60006040518083038185875af1925050503d806000811461139c576040519150601f19603f3d011682016040523d82523d6000602084013e6113a1565b606091505b50509050806113e5576040517f08c379a00000000000000000000000000000000000000000000000000000000081526004016113dc90614483565b60405180910390fd5b60006064600e54856113f79190613fb5565b6114019190613f84565b90506000600b60009054906101000a900473ffffffffffffffffffffffffffffffffffffffff1673ffffffffffffffffffffffffffffffffffffffff168260405161144b9061436a565b60006040518083038185875af1925050503d8060008114611488576040519150601f19603f3d011682016040523d82523d6000602084013e61148d565b606091505b50509050806114d1576040517f08c379a00000000000000000000000000000000000000000000000000000000081526004016114c890614515565b60405180910390fd5b81600f60008282546114e39190614535565b925050819055506000600f54141561152157611520600960009054906101000a900473ffffffffffffffffffffffffffffffffffffffff166129ca565b5b5050505050565b600061153382612a0e565b600001519050919050565b6013805461154b90613ef4565b80601f016020809104026020016040519081016040528092919081815260200182805461157790613ef4565b80156115c45780601f10611599576101008083540402835291602001916115c4565b820191906000526020600020905b8154815290600101906020018083116115a757829003601f168201915b505050505081565b60175481565b600c5481565b60008073ffffffffffffffffffffffffffffffffffffffff168273ffffffffffffffffffffffffffffffffffffffff161415611640576040517f8f4eb60400000000000000000000000000000000000000000000000000000000815260040160405180910390fd5b600560008373ffffffffffffffffffffffffffffffffffffffff1673ffffffffffffffffffffffffffffffffffffffff16815260200190815260200160002060000160009054906101000a900467ffffffffffffffff1667ffffffffffffffff169050919050565b6116b0612437565b73ffffffffffffffffffffffffffffffffffffffff166116ce611c23565b73ffffffffffffffffffffffffffffffffffffffff1614611724576040517f08c379a000000000000000000000000000000000000000000000000000000000815260040161171b906142ad565b60405180910390fd5b61172e6000612c9d565b565b601460009054906101000a900460ff1661177f576040517f08c379a0000000000000000000000000000000000000000000000000000000008152600401611776906145db565b60405180910390fd5b67011c37937e080000836117939190613fb5565b34146117d4576040517f08c379a00000000000000000000000000000000000000000000000000000000081526004016117cb906140c7565b60405180910390fd5b6122b86117df610d26565b846117ea91906140e7565b1061182a576040517f08c379a0000000000000000000000000000000000000000000000000000000008152600401611821906141af565b60405180910390fd5b6107d0611835610d26565b8461184091906140e7565b10611880576040517f08c379a00000000000000000000000000000000000000000000000000000000081526004016118779061466d565b60405180910390fd5b600283601560003373ffffffffffffffffffffffffffffffffffffffff1673ffffffffffffffffffffffffffffffffffffffff168152602001908152602001600020546118cd91906140e7565b111561190e576040517f08c379a0000000000000000000000000000000000000000000000000000000008152600401611905906146ff565b60405180910390fd5b6000336040516020016119219190614767565b604051602081830303815290604052805190602001209050611987838380806020026020016040519081016040528093929190818152602001838360200280828437600081840152601f19601f8201169050808301925050505050505060125483612d63565b6119c6576040517f08c379a00000000000000000000000000000000000000000000000000000000081526004016119bd906147ce565b60405180910390fd5b83601560003373ffffffffffffffffffffffffffffffffffffffff1673ffffffffffffffffffffffffffffffffffffffff1681526020019081526020016000206000828254611a1591906140e7565b92505081905550611a2633856129ac565b50505050565b611a34612437565b73ffffffffffffffffffffffffffffffffffffffff16611a52611c23565b73ffffffffffffffffffffffffffffffffffffffff1614611aa8576040517f08c379a0000000000000000000000000000000000000000000000000000000008152600401611a9f906142ad565b60405180910390fd5b8060128190555050565b600e5481565b611ac0612437565b73ffffffffffffffffffffffffffffffffffffffff16611ade611c23565b73ffffffffffffffffffffffffffffffffffffffff1614611b34576040517f08c379a0000000000000000000000000000000000000000000000000000000008152600401611b2b906142ad565b60405180910390fd5b6122b8611b3f610d26565b82611b4a91906140e7565b10611b8a576040517f08c379a0000000000000000000000000000000000000000000000000000000008152600401611b81906141af565b60405180910390fd5b806017541015611bcf576040517f08c379a0000000000000000000000000000000000000000000000000000000008152600401611bc690614860565b60405180910390fd5b611bfb600960009054906101000a900473ffffffffffffffffffffffffffffffffffffffff16826129ac565b8060176000828254611c0d9190614535565b9250508190555050565b67011c37937e08000081565b6000600860009054906101000a900473ffffffffffffffffffffffffffffffffffffffff16905090565b611c55612437565b73ffffffffffffffffffffffffffffffffffffffff16611c73611c23565b73ffffffffffffffffffffffffffffffffffffffff1614611cc9576040517f08c379a0000000000000000000000000000000000000000000000000000000008152600401611cc0906142ad565b60405180910390fd5b601460009054906101000a900460ff1615601460006101000a81548160ff021916908315150217905550565b606060038054611d0490613ef4565b80601f0160208091040260200160405190810160405280929190818152602001828054611d3090613ef4565b8015611d7d5780601f10611d5257610100808354040283529160200191611d7d565b820191906000526020600020905b815481529060010190602001808311611d6057829003601f168201915b5050505050905090565b600281565b6107d081565b611d9a612437565b73ffffffffffffffffffffffffffffffffffffffff168273ffffffffffffffffffffffffffffffffffffffff161415611dff576040517fb06307db00000000000000000000000000000000000000000000000000000000815260040160405180910390fd5b8060076000611e0c612437565b73ffffffffffffffffffffffffffffffffffffffff1673ffffffffffffffffffffffffffffffffffffffff16815260200190815260200160002060008473ffffffffffffffffffffffffffffffffffffffff1673ffffffffffffffffffffffffffffffffffffffff16815260200190815260200160002060006101000a81548160ff0219169083151502179055508173ffffffffffffffffffffffffffffffffffffffff16611eb9612437565b73ffffffffffffffffffffffffffffffffffffffff167f17307eab39ab6107e8899845ad3d59bd9653f200f220920489ca2b5937696c3183604051611efe919061375d565b60405180910390a35050565b611f158484846124f6565b611f348373ffffffffffffffffffffffffffffffffffffffff16612d7a565b8015611f495750611f4784848484612d9d565b155b15611f80576040517fd1a57ed600000000000000000000000000000000000000000000000000000000815260040160405180910390fd5b50505050565b600960009054906101000a900473ffffffffffffffffffffffffffffffffffffffff1681565b6060611fb7826123e9565b611fed576040517fa14c4b5000000000000000000000000000000000000000000000000000000000815260040160405180910390fd5b6000611ff7612eee565b90506000815114156120185760405180602001604052806000815250612043565b8061202284612f80565b6040516020016120339291906148bc565b6040516020818303038152906040525b915050919050565b60156020528060005260406000206000915090505481565b61206b612437565b73ffffffffffffffffffffffffffffffffffffffff16612089611c23565b73ffffffffffffffffffffffffffffffffffffffff16146120df576040517f08c379a00000000000000000000000000000000000000000000000000000000081526004016120d6906142ad565b60405180910390fd5b80601160006101000a81548173ffffffffffffffffffffffffffffffffffffffff021916908373ffffffffffffffffffffffffffffffffffffffff16021790555050565b600a60009054906101000a900473ffffffffffffffffffffffffffffffffffffffff1681565b600f5481565b600d5481565b6000600760008473ffffffffffffffffffffffffffffffffffffffff1673ffffffffffffffffffffffffffffffffffffffff16815260200190815260200160002060008373ffffffffffffffffffffffffffffffffffffffff1673ffffffffffffffffffffffffffffffffffffffff16815260200190815260200160002060009054906101000a900460ff16905092915050565b6121f1612437565b73ffffffffffffffffffffffffffffffffffffffff1661220f611c23565b73ffffffffffffffffffffffffffffffffffffffff1614612265576040517f08c379a000000000000000000000000000000000000000000000000000000000815260040161225c906142ad565b60405180910390fd5b600073ffffffffffffffffffffffffffffffffffffffff168173ffffffffffffffffffffffffffffffffffffffff1614156122d5576040517f08c379a00000000000000000000000000000000000000000000000000000000081526004016122cc90614952565b60405180910390fd5b6122de81612c9d565b50565b600b60009054906101000a900473ffffffffffffffffffffffffffffffffffffffff1681565b60007f80ac58cd000000000000000000000000000000000000000000000000000000007bffffffffffffffffffffffffffffffffffffffffffffffffffffffff1916827bffffffffffffffffffffffffffffffffffffffffffffffffffffffff191614806123d257507f5b5e139f000000000000000000000000000000000000000000000000000000007bffffffffffffffffffffffffffffffffffffffffffffffffffffffff1916827bffffffffffffffffffffffffffffffffffffffffffffffffffffffff1916145b806123e257506123e1826130e1565b5b9050919050565b6000816123f46124f1565b11158015612403575060005482105b8015612430575060046000838152602001908152602001600020600001601c9054906101000a900460ff16155b9050919050565b600033905090565b826006600084815260200190815260200160002060006101000a81548173ffffffffffffffffffffffffffffffffffffffff021916908373ffffffffffffffffffffffffffffffffffffffff160217905550818373ffffffffffffffffffffffffffffffffffffffff168273ffffffffffffffffffffffffffffffffffffffff167f8c5be1e5ebec7d5bd14f71427d1e84f3dd0314c0f7b2291e5b200ac8c7c3b92560405160405180910390a4505050565b600090565b600061250182612a0e565b90508373ffffffffffffffffffffffffffffffffffffffff16816000015173ffffffffffffffffffffffffffffffffffffffff161461256c576040517fa114810000000000000000000000000000000000000000000000000000000000815260040160405180910390fd5b60008473ffffffffffffffffffffffffffffffffffffffff1661258d612437565b73ffffffffffffffffffffffffffffffffffffffff1614806125bc57506125bb856125b6612437565b612155565b5b8061260157506125ca612437565b73ffffffffffffffffffffffffffffffffffffffff166125e984610b9f565b73ffffffffffffffffffffffffffffffffffffffff16145b90508061263a576040517f59c896be00000000000000000000000000000000000000000000000000000000815260040160405180910390fd5b600073ffffffffffffffffffffffffffffffffffffffff168473ffffffffffffffffffffffffffffffffffffffff1614156126a1576040517fea553b3400000000000000000000000000000000000000000000000000000000815260040160405180910390fd5b6126ae858585600161314b565b6126ba6000848761243f565b6001600560008773ffffffffffffffffffffffffffffffffffffffff1673ffffffffffffffffffffffffffffffffffffffff16815260200190815260200160002060000160008282829054906101000a900467ffffffffffffffff160392506101000a81548167ffffffffffffffff021916908367ffffffffffffffff1602179055506001600560008673ffffffffffffffffffffffffffffffffffffffff1673ffffffffffffffffffffffffffffffffffffffff16815260200190815260200160002060000160008282829054906101000a900467ffffffffffffffff160192506101000a81548167ffffffffffffffff021916908367ffffffffffffffff1602179055506000600460008581526020019081526020016000209050848160000160006101000a81548173ffffffffffffffffffffffffffffffffffffffff021916908373ffffffffffffffffffffffffffffffffffffffff160217905550428160000160146101000a81548167ffffffffffffffff021916908367ffffffffffffffff16021790555060006001850190506000600460008381526020019081526020016000209050600073ffffffffffffffffffffffffffffffffffffffff168160000160009054906101000a900473ffffffffffffffffffffffffffffffffffffffff1673ffffffffffffffffffffffffffffffffffffffff16141561293a57600054821461293957878160000160006101000a81548173ffffffffffffffffffffffffffffffffffffffff021916908373ffffffffffffffffffffffffffffffffffffffff16021790555084602001518160000160146101000a81548167ffffffffffffffff021916908367ffffffffffffffff1602179055505b5b505050828473ffffffffffffffffffffffffffffffffffffffff168673ffffffffffffffffffffffffffffffffffffffff167fddf252ad1be2c89b69c2b068fc378daa952ba7f163c4a11628f55a4df523b3ef60405160405180910390a46129a58585856001613151565b5050505050565b6129c6828260405180602001604052806000815250613157565b5050565b80600b60006101000a81548173ffffffffffffffffffffffffffffffffffffffff021916908373ffffffffffffffffffffffffffffffffffffffff16021790555050565b612a16613649565b600082905080612a246124f1565b11158015612a33575060005481105b15612c66576000600460008381526020019081526020016000206040518060600160405290816000820160009054906101000a900473ffffffffffffffffffffffffffffffffffffffff1673ffffffffffffffffffffffffffffffffffffffff1673ffffffffffffffffffffffffffffffffffffffff1681526020016000820160149054906101000a900467ffffffffffffffff1667ffffffffffffffff1667ffffffffffffffff16815260200160008201601c9054906101000a900460ff16151515158152505090508060400151612c6457600073ffffffffffffffffffffffffffffffffffffffff16816000015173ffffffffffffffffffffffffffffffffffffffff1614612b48578092505050612c98565b5b600115612c6357818060019003925050600460008381526020019081526020016000206040518060600160405290816000820160009054906101000a900473ffffffffffffffffffffffffffffffffffffffff1673ffffffffffffffffffffffffffffffffffffffff1673ffffffffffffffffffffffffffffffffffffffff1681526020016000820160149054906101000a900467ffffffffffffffff1667ffffffffffffffff1667ffffffffffffffff16815260200160008201601c9054906101000a900460ff1615151515815250509050600073ffffffffffffffffffffffffffffffffffffffff16816000015173ffffffffffffffffffffffffffffffffffffffff1614612c5e578092505050612c98565b612b49565b5b505b6040517fdf2d9b4200000000000000000000000000000000000000000000000000000000815260040160405180910390fd5b919050565b6000600860009054906101000a900473ffffffffffffffffffffffffffffffffffffffff16905081600860006101000a81548173ffffffffffffffffffffffffffffffffffffffff021916908373ffffffffffffffffffffffffffffffffffffffff1602179055508173ffffffffffffffffffffffffffffffffffffffff168173ffffffffffffffffffffffffffffffffffffffff167f8be0079c531659141344cd1fd0a4f28419497f9722a3daafe3b4186f6b6457e060405160405180910390a35050565b600082612d708584613169565b1490509392505050565b6000808273ffffffffffffffffffffffffffffffffffffffff163b119050919050565b60008373ffffffffffffffffffffffffffffffffffffffff1663150b7a02612dc3612437565b8786866040518563ffffffff1660e01b8152600401612de594939291906149c7565b6020604051808303816000875af1925050508015612e2157506040513d601f19601f82011682018060405250810190612e1e9190614a28565b60015b612e9b573d8060008114612e51576040519150601f19603f3d011682016040523d82523d6000602084013e612e56565b606091505b50600081511415612e93576040517fd1a57ed600000000000000000000000000000000000000000000000000000000815260040160405180910390fd5b805181602001fd5b63150b7a0260e01b7bffffffffffffffffffffffffffffffffffffffffffffffffffffffff1916817bffffffffffffffffffffffffffffffffffffffffffffffffffffffff191614915050949350505050565b606060138054612efd90613ef4565b80601f0160208091040260200160405190810160405280929190818152602001828054612f2990613ef4565b8015612f765780601f10612f4b57610100808354040283529160200191612f76565b820191906000526020600020905b815481529060010190602001808311612f5957829003601f168201915b5050505050905090565b60606000821415612fc8576040518060400160405280600181526020017f300000000000000000000000000000000000000000000000000000000000000081525090506130dc565b600082905060005b60008214612ffa578080612fe390614a55565b915050600a82612ff39190613f84565b9150612fd0565b60008167ffffffffffffffff81111561301657613015613cd7565b5b6040519080825280601f01601f1916602001820160405280156130485781602001600182028036833780820191505090505b5090505b600085146130d5576001826130619190614535565b9150600a856130709190614a9e565b603061307c91906140e7565b60f81b81838151811061309257613091614acf565b5b60200101907effffffffffffffffffffffffffffffffffffffffffffffffffffffffffffff1916908160001a905350600a856130ce9190613f84565b945061304c565b8093505050505b919050565b60007f01ffc9a7000000000000000000000000000000000000000000000000000000007bffffffffffffffffffffffffffffffffffffffffffffffffffffffff1916827bffffffffffffffffffffffffffffffffffffffffffffffffffffffff1916149050919050565b50505050565b50505050565b61316483838360016131de565b505050565b60008082905060005b84518110156131d35760008582815181106131905761318f614acf565b5b602002602001015190508083116131b2576131ab83826135ac565b92506131bf565b6131bc81846135ac565b92505b5080806131cb90614a55565b915050613172565b508091505092915050565b600080549050600073ffffffffffffffffffffffffffffffffffffffff168573ffffffffffffffffffffffffffffffffffffffff16141561324b576040517f2e07630000000000000000000000000000000000000000000000000000000000815260040160405180910390fd5b6000841415613286576040517fb562e8dd00000000000000000000000000000000000000000000000000000000815260040160405180910390fd5b613293600086838761314b565b83600560008773ffffffffffffffffffffffffffffffffffffffff1673ffffffffffffffffffffffffffffffffffffffff16815260200190815260200160002060000160008282829054906101000a900467ffffffffffffffff160192506101000a81548167ffffffffffffffff021916908367ffffffffffffffff16021790555083600560008773ffffffffffffffffffffffffffffffffffffffff1673ffffffffffffffffffffffffffffffffffffffff16815260200190815260200160002060000160088282829054906101000a900467ffffffffffffffff160192506101000a81548167ffffffffffffffff021916908367ffffffffffffffff160217905550846004600083815260200190815260200160002060000160006101000a81548173ffffffffffffffffffffffffffffffffffffffff021916908373ffffffffffffffffffffffffffffffffffffffff160217905550426004600083815260200190815260200160002060000160146101000a81548167ffffffffffffffff021916908367ffffffffffffffff16021790555060008190506000858201905083801561345d575061345c8773ffffffffffffffffffffffffffffffffffffffff16612d7a565b5b15613523575b818773ffffffffffffffffffffffffffffffffffffffff16600073ffffffffffffffffffffffffffffffffffffffff167fddf252ad1be2c89b69c2b068fc378daa952ba7f163c4a11628f55a4df523b3ef60405160405180910390a46134d26000888480600101955088612d9d565b613508576040517fd1a57ed600000000000000000000000000000000000000000000000000000000815260040160405180910390fd5b8082141561346357826000541461351e57600080fd5b61358f565b5b818060010192508773ffffffffffffffffffffffffffffffffffffffff16600073ffffffffffffffffffffffffffffffffffffffff167fddf252ad1be2c89b69c2b068fc378daa952ba7f163c4a11628f55a4df523b3ef60405160405180910390a480821415613524575b8160008190555050506135a56000868387613151565b5050505050565b600082600052816020526040600020905092915050565b8280546135cf90613ef4565b90600052602060002090601f0160209004810192826135f15760008555613638565b82601f1061360a57803560ff1916838001178555613638565b82800160010185558215613638579182015b8281111561363757823582559160200191906001019061361c565b5b509050613645919061368c565b5090565b6040518060600160405280600073ffffffffffffffffffffffffffffffffffffffff168152602001600067ffffffffffffffff1681526020016000151581525090565b5b808211156136a557600081600090555060010161368d565b5090565b6000604051905090565b600080fd5b600080fd5b60007fffffffff0000000000000000000000000000000000000000000000000000000082169050919050565b6136f2816136bd565b81146136fd57600080fd5b50565b60008135905061370f816136e9565b92915050565b60006020828403121561372b5761372a6136b3565b5b600061373984828501613700565b91505092915050565b60008115159050919050565b61375781613742565b82525050565b6000602082019050613772600083018461374e565b92915050565b600081519050919050565b600082825260208201905092915050565b60005b838110156137b2578082015181840152602081019050613797565b838111156137c1576000848401525b50505050565b6000601f19601f8301169050919050565b60006137e382613778565b6137ed8185613783565b93506137fd818560208601613794565b613806816137c7565b840191505092915050565b6000602082019050818103600083015261382b81846137d8565b905092915050565b6000819050919050565b61384681613833565b811461385157600080fd5b50565b6000813590506138638161383d565b92915050565b60006020828403121561387f5761387e6136b3565b5b600061388d84828501613854565b91505092915050565b600073ffffffffffffffffffffffffffffffffffffffff82169050919050565b60006138c182613896565b9050919050565b6138d1816138b6565b82525050565b60006020820190506138ec60008301846138c8565b92915050565b6138fb816138b6565b811461390657600080fd5b50565b600081359050613918816138f2565b92915050565b60008060408385031215613935576139346136b3565b5b600061394385828601613909565b925050602061395485828601613854565b9150509250929050565b61396781613833565b82525050565b6000602082019050613982600083018461395e565b92915050565b60006020828403121561399e5761399d6136b3565b5b60006139ac84828501613909565b91505092915050565b6000806000606084860312156139ce576139cd6136b3565b5b60006139dc86828701613909565b93505060206139ed86828701613909565b92505060406139fe86828701613854565b9150509250925092565b60008060408385031215613a1f57613a1e6136b3565b5b6000613a2d85828601613854565b9250506020613a3e85828601613854565b9150509250929050565b6000604082019050613a5d60008301856138c8565b613a6a602083018461395e565b9392505050565b6000819050919050565b613a8481613a71565b82525050565b6000602082019050613a9f6000830184613a7b565b92915050565b600080fd5b600080fd5b600080fd5b60008083601f840112613aca57613ac9613aa5565b5b8235905067ffffffffffffffff811115613ae757613ae6613aaa565b5b602083019150836001820283011115613b0357613b02613aaf565b5b9250929050565b60008060208385031215613b2157613b206136b3565b5b600083013567ffffffffffffffff811115613b3f57613b3e6136b8565b5b613b4b85828601613ab4565b92509250509250929050565b60008083601f840112613b6d57613b6c613aa5565b5b8235905067ffffffffffffffff811115613b8a57613b89613aaa565b5b602083019150836020820283011115613ba657613ba5613aaf565b5b9250929050565b600080600060408486031215613bc657613bc56136b3565b5b6000613bd486828701613854565b935050602084013567ffffffffffffffff811115613bf557613bf46136b8565b5b613c0186828701613b57565b92509250509250925092565b613c1681613a71565b8114613c2157600080fd5b50565b600081359050613c3381613c0d565b92915050565b600060208284031215613c4f57613c4e6136b3565b5b6000613c5d84828501613c24565b91505092915050565b613c6f81613742565b8114613c7a57600080fd5b50565b600081359050613c8c81613c66565b92915050565b60008060408385031215613ca957613ca86136b3565b5b6000613cb785828601613909565b9250506020613cc885828601613c7d565b9150509250929050565b600080fd5b7f4e487b7100000000000000000000000000000000000000000000000000000000600052604160045260246000fd5b613d0f826137c7565b810181811067ffffffffffffffff82111715613d2e57613d2d613cd7565b5b80604052505050565b6000613d416136a9565b9050613d4d8282613d06565b919050565b600067ffffffffffffffff821115613d6d57613d6c613cd7565b5b613d76826137c7565b9050602081019050919050565b82818337600083830152505050565b6000613da5613da084613d52565b613d37565b905082815260208101848484011115613dc157613dc0613cd2565b5b613dcc848285613d83565b509392505050565b600082601f830112613de957613de8613aa5565b5b8135613df9848260208601613d92565b91505092915050565b60008060008060808587031215613e1c57613e1b6136b3565b5b6000613e2a87828801613909565b9450506020613e3b87828801613909565b9350506040613e4c87828801613854565b925050606085013567ffffffffffffffff811115613e6d57613e6c6136b8565b5b613e7987828801613dd4565b91505092959194509250565b60008060408385031215613e9c57613e9b6136b3565b5b6000613eaa85828601613909565b9250506020613ebb85828601613909565b9150509250929050565b7f4e487b7100000000000000000000000000000000000000000000000000000000600052602260045260246000fd5b60006002820490506001821680613f0c57607f821691505b60208210811415613f2057613f1f613ec5565b5b50919050565b7f4e487b7100000000000000000000000000000000000000000000000000000000600052601260045260246000fd5b7f4e487b7100000000000000000000000000000000000000000000000000000000600052601160045260246000fd5b6000613f8f82613833565b9150613f9a83613833565b925082613faa57613fa9613f26565b5b828204905092915050565b6000613fc082613833565b9150613fcb83613833565b9250817fffffffffffffffffffffffffffffffffffffffffffffffffffffffffffffffff048311821515161561400457614003613f55565b5b828202905092915050565b7f4552524f523a207075626c6963206d696e74206973206e6f7420616374697665600082015250565b6000614045602083613783565b91506140508261400f565b602082019050919050565b6000602082019050818103600083015261407481614038565b9050919050565b7f4552524f523a20696e73756666696369656e7420616d6f756e74207061696400600082015250565b60006140b1601f83613783565b91506140bc8261407b565b602082019050919050565b600060208201905081810360008301526140e0816140a4565b9050919050565b60006140f282613833565b91506140fd83613833565b9250827fffffffffffffffffffffffffffffffffffffffffffffffffffffffffffffffff0382111561413257614131613f55565b5b828201905092915050565b7f4552524f523a206e6f7420656e6f7567682072656d61696e696e6720746f206d60008201527f696e740000000000000000000000000000000000000000000000000000000000602082015250565b6000614199602383613783565b91506141a48261413d565b604082019050919050565b600060208201905081810360008301526141c88161418c565b9050919050565b7f4552524f523a206d6178206d696e74732070657220616464726573732065786360008201527f6565646564000000000000000000000000000000000000000000000000000000602082015250565b600061422b602583613783565b9150614236826141cf565b604082019050919050565b6000602082019050818103600083015261425a8161421e565b9050919050565b7f4f776e61626c653a2063616c6c6572206973206e6f7420746865206f776e6572600082015250565b6000614297602083613783565b91506142a282614261565b602082019050919050565b600060208201905081810360008301526142c68161428a565b9050919050565b7f4552524f523a206e6f7468696e6720746f207769746864726177000000000000600082015250565b6000614303601a83613783565b915061430e826142cd565b602082019050919050565b60006020820190508181036000830152614332816142f6565b9050919050565b600081905092915050565b50565b6000614354600083614339565b915061435f82614344565b600082019050919050565b600061437582614347565b9150819050919050565b7f4552524f523a2066697273742070617274792077616c6c65742077697468647260008201527f6177616c206661696c6564000000000000000000000000000000000000000000602082015250565b60006143db602b83613783565b91506143e68261437f565b604082019050919050565b6000602082019050818103600083015261440a816143ce565b9050919050565b7f4552524f523a207365636f6e642070617274792077616c6c657420776974686460008201527f726177616c206661696c65640000000000000000000000000000000000000000602082015250565b600061446d602c83613783565b915061447882614411565b604082019050919050565b6000602082019050818103600083015261449c81614460565b9050919050565b7f4552524f523a2074686972642070617274792077616c6c65742077697468647260008201527f6177616c206661696c6564000000000000000000000000000000000000000000602082015250565b60006144ff602b83613783565b915061450a826144a3565b604082019050919050565b6000602082019050818103600083015261452e816144f2565b9050919050565b600061454082613833565b915061454b83613833565b92508282101561455e5761455d613f55565b5b828203905092915050565b7f4552524f523a20616c6c6f776c697374206d696e74206973206e6f742061637460008201527f6976650000000000000000000000000000000000000000000000000000000000602082015250565b60006145c5602383613783565b91506145d082614569565b604082019050919050565b600060208201905081810360008301526145f4816145b8565b9050919050565b7f4552524f523a206e6f7420656e6f7567682073706f747320696e20616c6c6f7760008201527f6c69737400000000000000000000000000000000000000000000000000000000602082015250565b6000614657602483613783565b9150614662826145fb565b604082019050919050565b600060208201905081810360008301526146868161464a565b9050919050565b7f4552524f523a206d6178206d696e74732070657220616c6c6f776c697374206560008201527f7863656564656400000000000000000000000000000000000000000000000000602082015250565b60006146e9602783613783565b91506146f48261468d565b604082019050919050565b60006020820190508181036000830152614718816146dc565b9050919050565b60008160601b9050919050565b60006147378261471f565b9050919050565b60006147498261472c565b9050919050565b61476161475c826138b6565b61473e565b82525050565b60006147738284614750565b60148201915081905092915050565b7f4552524f523a206e6f7420696e20616c6c6f776c697374000000000000000000600082015250565b60006147b8601783613783565b91506147c382614782565b602082019050919050565b600060208201905081810360008301526147e7816147ab565b9050919050565b7f4552524f523a206e6f7420656e6f7567682072657365727665206d696e74732060008201527f6c65667400000000000000000000000000000000000000000000000000000000602082015250565b600061484a602483613783565b9150614855826147ee565b604082019050919050565b600060208201905081810360008301526148798161483d565b9050919050565b600081905092915050565b600061489682613778565b6148a08185614880565b93506148b0818560208601613794565b80840191505092915050565b60006148c8828561488b565b91506148d4828461488b565b91508190509392505050565b7f4f776e61626c653a206e6577206f776e657220697320746865207a65726f206160008201527f6464726573730000000000000000000000000000000000000000000000000000602082015250565b600061493c602683613783565b9150614947826148e0565b604082019050919050565b6000602082019050818103600083015261496b8161492f565b9050919050565b600081519050919050565b600082825260208201905092915050565b600061499982614972565b6149a3818561497d565b93506149b3818560208601613794565b6149bc816137c7565b840191505092915050565b60006080820190506149dc60008301876138c8565b6149e960208301866138c8565b6149f6604083018561395e565b8181036060830152614a08818461498e565b905095945050505050565b600081519050614a22816136e9565b92915050565b600060208284031215614a3e57614a3d6136b3565b5b6000614a4c84828501614a13565b91505092915050565b6000614a6082613833565b91507fffffffffffffffffffffffffffffffffffffffffffffffffffffffffffffffff821415614a9357614a92613f55565b5b600182019050919050565b6000614aa982613833565b9150614ab483613833565b925082614ac457614ac3613f26565b5b828206905092915050565b7f4e487b7100000000000000000000000000000000000000000000000000000000600052603260045260246000fdfea2646970667358221220f55917b307576faa482a6c11ad8b227f47b9a2353bf67662dddaad8ec26bc31464736f6c634300080c0033",
  "linkReferences": {},
  "deployedLinkReferences": {}
}